{
  "_format": "hh-sol-artifact-1",
  "contractName": "NFTMarket",
  "sourceName": "contracts/NFTMarket.sol",
  "abi": [
    {
      "inputs": [],
      "stateMutability": "nonpayable",
      "type": "constructor"
    },
    {
      "anonymous": false,
      "inputs": [
        {
          "indexed": true,
          "internalType": "address",
          "name": "owner",
          "type": "address"
        },
        {
          "indexed": true,
          "internalType": "address",
          "name": "approved",
          "type": "address"
        },
        {
          "indexed": true,
          "internalType": "uint256",
          "name": "tokenId",
          "type": "uint256"
        }
      ],
      "name": "Approval",
      "type": "event"
    },
    {
      "anonymous": false,
      "inputs": [
        {
          "indexed": true,
          "internalType": "address",
          "name": "owner",
          "type": "address"
        },
        {
          "indexed": true,
          "internalType": "address",
          "name": "operator",
          "type": "address"
        },
        {
          "indexed": false,
          "internalType": "bool",
          "name": "approved",
          "type": "bool"
        }
      ],
      "name": "ApprovalForAll",
      "type": "event"
    },
    {
      "anonymous": false,
      "inputs": [
        {
          "indexed": false,
          "internalType": "uint256",
          "name": "tokenID",
          "type": "uint256"
        },
        {
          "indexed": false,
          "internalType": "address",
          "name": "from",
          "type": "address"
        },
        {
          "indexed": false,
          "internalType": "address",
          "name": "to",
          "type": "address"
        },
        {
          "indexed": false,
          "internalType": "string",
          "name": "tokenURI",
          "type": "string"
        },
        {
          "indexed": false,
          "internalType": "uint256",
          "name": "price",
          "type": "uint256"
        }
      ],
      "name": "NFTTransfer",
      "type": "event"
    },
    {
      "anonymous": false,
      "inputs": [
        {
          "indexed": true,
          "internalType": "address",
          "name": "previousOwner",
          "type": "address"
        },
        {
          "indexed": true,
          "internalType": "address",
          "name": "newOwner",
          "type": "address"
        }
      ],
      "name": "OwnershipTransferred",
      "type": "event"
    },
    {
      "anonymous": false,
      "inputs": [
        {
          "indexed": true,
          "internalType": "address",
          "name": "from",
          "type": "address"
        },
        {
          "indexed": true,
          "internalType": "address",
          "name": "to",
          "type": "address"
        },
        {
          "indexed": true,
          "internalType": "uint256",
          "name": "tokenId",
          "type": "uint256"
        }
      ],
      "name": "Transfer",
      "type": "event"
    },
    {
      "inputs": [
        {
          "internalType": "address",
          "name": "to",
          "type": "address"
        },
        {
          "internalType": "uint256",
          "name": "tokenId",
          "type": "uint256"
        }
      ],
      "name": "approve",
      "outputs": [],
      "stateMutability": "nonpayable",
      "type": "function"
    },
    {
      "inputs": [
        {
          "internalType": "address",
          "name": "owner",
          "type": "address"
        }
      ],
      "name": "balanceOf",
      "outputs": [
        {
          "internalType": "uint256",
          "name": "",
          "type": "uint256"
        }
      ],
      "stateMutability": "view",
      "type": "function"
    },
    {
      "inputs": [
        {
          "internalType": "uint256",
          "name": "tokenID",
          "type": "uint256"
        }
      ],
      "name": "buyNFT",
      "outputs": [],
      "stateMutability": "payable",
      "type": "function"
    },
    {
      "inputs": [
        {
          "internalType": "uint256",
          "name": "tokenID",
          "type": "uint256"
        }
      ],
      "name": "cancelListing",
      "outputs": [],
      "stateMutability": "nonpayable",
      "type": "function"
    },
    {
      "inputs": [
        {
          "internalType": "string",
          "name": "tokenURI",
          "type": "string"
        }
      ],
      "name": "createNFT",
      "outputs": [],
      "stateMutability": "nonpayable",
      "type": "function"
    },
    {
      "inputs": [
        {
          "internalType": "uint256",
          "name": "tokenId",
          "type": "uint256"
        }
      ],
      "name": "getApproved",
      "outputs": [
        {
          "internalType": "address",
          "name": "",
          "type": "address"
        }
      ],
      "stateMutability": "view",
      "type": "function"
    },
    {
      "inputs": [
        {
          "internalType": "address",
          "name": "owner",
          "type": "address"
        },
        {
          "internalType": "address",
          "name": "operator",
          "type": "address"
        }
      ],
      "name": "isApprovedForAll",
      "outputs": [
        {
          "internalType": "bool",
          "name": "",
          "type": "bool"
        }
      ],
      "stateMutability": "view",
      "type": "function"
    },
    {
      "inputs": [
        {
          "internalType": "uint256",
          "name": "tokenID",
          "type": "uint256"
        },
        {
          "internalType": "uint256",
          "name": "price",
          "type": "uint256"
        }
      ],
      "name": "listNFT",
      "outputs": [],
      "stateMutability": "nonpayable",
      "type": "function"
    },
    {
      "inputs": [],
      "name": "name",
      "outputs": [
        {
          "internalType": "string",
          "name": "",
          "type": "string"
        }
      ],
      "stateMutability": "view",
      "type": "function"
    },
    {
      "inputs": [],
      "name": "owner",
      "outputs": [
        {
          "internalType": "address",
          "name": "",
          "type": "address"
        }
      ],
      "stateMutability": "view",
      "type": "function"
    },
    {
      "inputs": [
        {
          "internalType": "uint256",
          "name": "tokenId",
          "type": "uint256"
        }
      ],
      "name": "ownerOf",
      "outputs": [
        {
          "internalType": "address",
          "name": "",
          "type": "address"
        }
      ],
      "stateMutability": "view",
      "type": "function"
    },
    {
      "inputs": [],
      "name": "renounceOwnership",
      "outputs": [],
      "stateMutability": "nonpayable",
      "type": "function"
    },
    {
      "inputs": [
        {
          "internalType": "address",
          "name": "from",
          "type": "address"
        },
        {
          "internalType": "address",
          "name": "to",
          "type": "address"
        },
        {
          "internalType": "uint256",
          "name": "tokenId",
          "type": "uint256"
        }
      ],
      "name": "safeTransferFrom",
      "outputs": [],
      "stateMutability": "nonpayable",
      "type": "function"
    },
    {
      "inputs": [
        {
          "internalType": "address",
          "name": "from",
          "type": "address"
        },
        {
          "internalType": "address",
          "name": "to",
          "type": "address"
        },
        {
          "internalType": "uint256",
          "name": "tokenId",
          "type": "uint256"
        },
        {
          "internalType": "bytes",
          "name": "_data",
          "type": "bytes"
        }
      ],
      "name": "safeTransferFrom",
      "outputs": [],
      "stateMutability": "nonpayable",
      "type": "function"
    },
    {
      "inputs": [
        {
          "internalType": "address",
          "name": "operator",
          "type": "address"
        },
        {
          "internalType": "bool",
          "name": "approved",
          "type": "bool"
        }
      ],
      "name": "setApprovalForAll",
      "outputs": [],
      "stateMutability": "nonpayable",
      "type": "function"
    },
    {
      "inputs": [
        {
          "internalType": "bytes4",
          "name": "interfaceId",
          "type": "bytes4"
        }
      ],
      "name": "supportsInterface",
      "outputs": [
        {
          "internalType": "bool",
          "name": "",
          "type": "bool"
        }
      ],
      "stateMutability": "view",
      "type": "function"
    },
    {
      "inputs": [],
      "name": "symbol",
      "outputs": [
        {
          "internalType": "string",
          "name": "",
          "type": "string"
        }
      ],
      "stateMutability": "view",
      "type": "function"
    },
    {
      "inputs": [
        {
          "internalType": "uint256",
          "name": "tokenId",
          "type": "uint256"
        }
      ],
      "name": "tokenURI",
      "outputs": [
        {
          "internalType": "string",
          "name": "",
          "type": "string"
        }
      ],
      "stateMutability": "view",
      "type": "function"
    },
    {
      "inputs": [
        {
          "internalType": "address",
          "name": "from",
          "type": "address"
        },
        {
          "internalType": "address",
          "name": "to",
          "type": "address"
        },
        {
          "internalType": "uint256",
          "name": "tokenId",
          "type": "uint256"
        }
      ],
      "name": "transferFrom",
      "outputs": [],
      "stateMutability": "nonpayable",
      "type": "function"
    },
    {
      "inputs": [
        {
          "internalType": "address",
          "name": "newOwner",
          "type": "address"
        }
      ],
      "name": "transferOwnership",
      "outputs": [],
      "stateMutability": "nonpayable",
      "type": "function"
    },
    {
      "inputs": [],
      "name": "withdrawFunds",
      "outputs": [],
      "stateMutability": "nonpayable",
      "type": "function"
    }
  ],
  "bytecode": "0x60806040523480156200001157600080fd5b506040518060400160405280600c81526020017f4162646f752773204e46547300000000000000000000000000000000000000008152506040518060400160405280600481526020017f414e465400000000000000000000000000000000000000000000000000000000815250816000908051906020019062000096929190620001a6565b508060019080519060200190620000af929190620001a6565b505050620000d2620000c6620000d860201b60201c565b620000e060201b60201c565b620002bb565b600033905090565b6000600760009054906101000a900473ffffffffffffffffffffffffffffffffffffffff16905081600760006101000a81548173ffffffffffffffffffffffffffffffffffffffff021916908373ffffffffffffffffffffffffffffffffffffffff1602179055508173ffffffffffffffffffffffffffffffffffffffff168173ffffffffffffffffffffffffffffffffffffffff167f8be0079c531659141344cd1fd0a4f28419497f9722a3daafe3b4186f6b6457e060405160405180910390a35050565b828054620001b49062000285565b90600052602060002090601f016020900481019282620001d8576000855562000224565b82601f10620001f357805160ff191683800117855562000224565b8280016001018555821562000224579182015b828111156200022357825182559160200191906001019062000206565b5b50905062000233919062000237565b5090565b5b808211156200025257600081600090555060010162000238565b5090565b7f4e487b7100000000000000000000000000000000000000000000000000000000600052602260045260246000fd5b600060028204905060018216806200029e57607f821691505b60208210811415620002b557620002b462000256565b5b50919050565b613d8b80620002cb6000396000f3fe60806040526004361061012a5760003560e01c806370a08231116100ab578063a22cb4651161006f578063a22cb465146103bb578063b88d4fde146103e4578063c87b56dd1461040d578063da2ed03e1461044a578063e985e9c514610473578063f2fde38b146104b05761012a565b806370a08231146102e8578063715018a6146103255780638da5cb5b1461033c57806394383f141461036757806395d89b41146103905761012a565b806324600fc3116100f257806324600fc314610226578063305a67a81461023d57806342842e0e1461026657806351ed82881461028f5780636352211e146102ab5761012a565b806301ffc9a71461012f57806306fdde031461016c578063081812fc14610197578063095ea7b3146101d457806323b872dd146101fd575b600080fd5b34801561013b57600080fd5b5061015660048036038101906101519190612562565b6104d9565b60405161016391906125aa565b60405180910390f35b34801561017857600080fd5b506101816105bb565b60405161018e919061265e565b60405180910390f35b3480156101a357600080fd5b506101be60048036038101906101b991906126b6565b61064d565b6040516101cb9190612724565b60405180910390f35b3480156101e057600080fd5b506101fb60048036038101906101f6919061276b565b6106d2565b005b34801561020957600080fd5b50610224600480360381019061021f91906127ab565b6107ea565b005b34801561023257600080fd5b5061023b61084a565b005b34801561024957600080fd5b50610264600480360381019061025f91906126b6565b610958565b005b34801561027257600080fd5b5061028d600480360381019061028891906127ab565b610b4d565b005b6102a960048036038101906102a491906126b6565b610b6d565b005b3480156102b757600080fd5b506102d260048036038101906102cd91906126b6565b610dab565b6040516102df9190612724565b60405180910390f35b3480156102f457600080fd5b5061030f600480360381019061030a91906127fe565b610e5d565b60405161031c919061283a565b60405180910390f35b34801561033157600080fd5b5061033a610f15565b005b34801561034857600080fd5b50610351610f9d565b60405161035e9190612724565b60405180910390f35b34801561037357600080fd5b5061038e60048036038101906103899190612855565b610fc7565b005b34801561039c57600080fd5b506103a56110e8565b6040516103b2919061265e565b60405180910390f35b3480156103c757600080fd5b506103e260048036038101906103dd91906128c1565b61117a565b005b3480156103f057600080fd5b5061040b60048036038101906104069190612a36565b611190565b005b34801561041957600080fd5b50610434600480360381019061042f91906126b6565b6111f2565b604051610441919061265e565b60405180910390f35b34801561045657600080fd5b50610471600480360381019061046c9190612b19565b611344565b005b34801561047f57600080fd5b5061049a60048036038101906104959190612b66565b6113fc565b6040516104a791906125aa565b60405180910390f35b3480156104bc57600080fd5b506104d760048036038101906104d291906127fe565b611490565b005b60007f80ac58cd000000000000000000000000000000000000000000000000000000007bffffffffffffffffffffffffffffffffffffffffffffffffffffffff1916827bffffffffffffffffffffffffffffffffffffffffffffffffffffffff191614806105a457507f5b5e139f000000000000000000000000000000000000000000000000000000007bffffffffffffffffffffffffffffffffffffffffffffffffffffffff1916827bffffffffffffffffffffffffffffffffffffffffffffffffffffffff1916145b806105b457506105b382611588565b5b9050919050565b6060600080546105ca90612bd5565b80601f01602080910402602001604051908101604052809291908181526020018280546105f690612bd5565b80156106435780601f1061061857610100808354040283529160200191610643565b820191906000526020600020905b81548152906001019060200180831161062657829003601f168201915b5050505050905090565b6000610658826115f2565b610697576040517f08c379a000000000000000000000000000000000000000000000000000000000815260040161068e90612c79565b60405180910390fd5b6004600083815260200190815260200160002060009054906101000a900473ffffffffffffffffffffffffffffffffffffffff169050919050565b60006106dd82610dab565b90508073ffffffffffffffffffffffffffffffffffffffff168373ffffffffffffffffffffffffffffffffffffffff16141561074e576040517f08c379a000000000000000000000000000000000000000000000000000000000815260040161074590612d0b565b60405180910390fd5b8073ffffffffffffffffffffffffffffffffffffffff1661076d61165e565b73ffffffffffffffffffffffffffffffffffffffff16148061079c575061079b8161079661165e565b6113fc565b5b6107db576040517f08c379a00000000000000000000000000000000000000000000000000000000081526004016107d290612d9d565b60405180910390fd5b6107e58383611666565b505050565b6107fb6107f561165e565b8261171f565b61083a576040517f08c379a000000000000000000000000000000000000000000000000000000000815260040161083190612e2f565b60405180910390fd5b6108458383836117fd565b505050565b61085261165e565b73ffffffffffffffffffffffffffffffffffffffff16610870610f9d565b73ffffffffffffffffffffffffffffffffffffffff16146108c6576040517f08c379a00000000000000000000000000000000000000000000000000000000081526004016108bd90612e9b565b60405180910390fd5b60004790506000811161090e576040517f08c379a000000000000000000000000000000000000000000000000000000000815260040161090590612f07565b60405180910390fd5b3373ffffffffffffffffffffffffffffffffffffffff166108fc829081150290604051600060405180830381858888f19350505050158015610954573d6000803e3d6000fd5b5050565b600060096000838152602001908152602001600020604051806040016040529081600082015481526020016001820160009054906101000a900473ffffffffffffffffffffffffffffffffffffffff1673ffffffffffffffffffffffffffffffffffffffff1673ffffffffffffffffffffffffffffffffffffffff168152505090506000816000015111610a21576040517f08c379a0000000000000000000000000000000000000000000000000000000008152600401610a1890612f99565b60405180910390fd5b3373ffffffffffffffffffffffffffffffffffffffff16816020015173ffffffffffffffffffffffffffffffffffffffff1614610a93576040517f08c379a0000000000000000000000000000000000000000000000000000000008152600401610a8a90613005565b60405180910390fd5b3073ffffffffffffffffffffffffffffffffffffffff166323b872dd3033856040518463ffffffff1660e01b8152600401610ad093929190613025565b600060405180830381600087803b158015610aea57600080fd5b505af1158015610afe573d6000803e3d6000fd5b50505050610b0b82611a64565b7f705332a8918666802fc1504f63ff1f002a5f6cedd30d59ad7ae0b5281aeb8dca8230336000604051610b4194939291906130c7565b60405180910390a15050565b610b6883838360405180602001604052806000815250611190565b505050565b600060096000838152602001908152602001600020604051806040016040529081600082015481526020016001820160009054906101000a900473ffffffffffffffffffffffffffffffffffffffff1673ffffffffffffffffffffffffffffffffffffffff1673ffffffffffffffffffffffffffffffffffffffff168152505090506000816000015111610c36576040517f08c379a0000000000000000000000000000000000000000000000000000000008152600401610c2d90612f99565b60405180910390fd5b80600001513414610c7c576040517f08c379a0000000000000000000000000000000000000000000000000000000008152600401610c739061316b565b60405180910390fd5b3073ffffffffffffffffffffffffffffffffffffffff166323b872dd3033856040518463ffffffff1660e01b8152600401610cb993929190613025565b600060405180830381600087803b158015610cd357600080fd5b505af1158015610ce7573d6000803e3d6000fd5b50505050610cf482611a64565b806020015173ffffffffffffffffffffffffffffffffffffffff166108fc610d3d6064610d2f605f8660000151611ad990919063ffffffff16565b611aef90919063ffffffff16565b9081150290604051600060405180830381858888f19350505050158015610d68573d6000803e3d6000fd5b507f705332a8918666802fc1504f63ff1f002a5f6cedd30d59ad7ae0b5281aeb8dca8230336000604051610d9f94939291906130c7565b60405180910390a15050565b6000806002600084815260200190815260200160002060009054906101000a900473ffffffffffffffffffffffffffffffffffffffff169050600073ffffffffffffffffffffffffffffffffffffffff168173ffffffffffffffffffffffffffffffffffffffff161415610e54576040517f08c379a0000000000000000000000000000000000000000000000000000000008152600401610e4b906131fd565b60405180910390fd5b80915050919050565b60008073ffffffffffffffffffffffffffffffffffffffff168273ffffffffffffffffffffffffffffffffffffffff161415610ece576040517f08c379a0000000000000000000000000000000000000000000000000000000008152600401610ec59061328f565b60405180910390fd5b600360008373ffffffffffffffffffffffffffffffffffffffff1673ffffffffffffffffffffffffffffffffffffffff168152602001908152602001600020549050919050565b610f1d61165e565b73ffffffffffffffffffffffffffffffffffffffff16610f3b610f9d565b73ffffffffffffffffffffffffffffffffffffffff1614610f91576040517f08c379a0000000000000000000000000000000000000000000000000000000008152600401610f8890612e9b565b60405180910390fd5b610f9b6000611b05565b565b6000600760009054906101000a900473ffffffffffffffffffffffffffffffffffffffff16905090565b6000811161100a576040517f08c379a000000000000000000000000000000000000000000000000000000000815260040161100190613321565b60405180910390fd5b6110153330846107ea565b60405180604001604052808281526020013373ffffffffffffffffffffffffffffffffffffffff16815250600960008481526020019081526020016000206000820151816000015560208201518160010160006101000a81548173ffffffffffffffffffffffffffffffffffffffff021916908373ffffffffffffffffffffffffffffffffffffffff1602179055509050507f705332a8918666802fc1504f63ff1f002a5f6cedd30d59ad7ae0b5281aeb8dca823330846040516110dc9493929190613341565b60405180910390a15050565b6060600180546110f790612bd5565b80601f016020809104026020016040519081016040528092919081815260200182805461112390612bd5565b80156111705780601f1061114557610100808354040283529160200191611170565b820191906000526020600020905b81548152906001019060200180831161115357829003601f168201915b5050505050905090565b61118c61118561165e565b8383611bcb565b5050565b6111a161119b61165e565b8361171f565b6111e0576040517f08c379a00000000000000000000000000000000000000000000000000000000081526004016111d790612e2f565b60405180910390fd5b6111ec84848484611d38565b50505050565b60606111fd826115f2565b61123c576040517f08c379a00000000000000000000000000000000000000000000000000000000081526004016112339061340b565b60405180910390fd5b600060066000848152602001908152602001600020805461125c90612bd5565b80601f016020809104026020016040519081016040528092919081815260200182805461128890612bd5565b80156112d55780601f106112aa576101008083540402835291602001916112d5565b820191906000526020600020905b8154815290600101906020018083116112b857829003601f168201915b5050505050905060006112e6611d94565b90506000815114156112fc57819250505061133f565b600082511115611331578082604051602001611319929190613467565b6040516020818303038152906040529250505061133f565b61133a84611dab565b925050505b919050565b61134e6008611e52565b600061135a6008611e68565b90506113663382611e76565b6113b48184848080601f016020809104026020016040519081016040528093929190818152602001838380828437600081840152601f19601f82011690508083019250505050505050611e94565b7f705332a8918666802fc1504f63ff1f002a5f6cedd30d59ad7ae0b5281aeb8dca81600033868660006040516113ef969594939291906134b8565b60405180910390a1505050565b6000600560008473ffffffffffffffffffffffffffffffffffffffff1673ffffffffffffffffffffffffffffffffffffffff16815260200190815260200160002060008373ffffffffffffffffffffffffffffffffffffffff1673ffffffffffffffffffffffffffffffffffffffff16815260200190815260200160002060009054906101000a900460ff16905092915050565b61149861165e565b73ffffffffffffffffffffffffffffffffffffffff166114b6610f9d565b73ffffffffffffffffffffffffffffffffffffffff161461150c576040517f08c379a000000000000000000000000000000000000000000000000000000000815260040161150390612e9b565b60405180910390fd5b600073ffffffffffffffffffffffffffffffffffffffff168173ffffffffffffffffffffffffffffffffffffffff16141561157c576040517f08c379a000000000000000000000000000000000000000000000000000000000815260040161157390613586565b60405180910390fd5b61158581611b05565b50565b60007f01ffc9a7000000000000000000000000000000000000000000000000000000007bffffffffffffffffffffffffffffffffffffffffffffffffffffffff1916827bffffffffffffffffffffffffffffffffffffffffffffffffffffffff1916149050919050565b60008073ffffffffffffffffffffffffffffffffffffffff166002600084815260200190815260200160002060009054906101000a900473ffffffffffffffffffffffffffffffffffffffff1673ffffffffffffffffffffffffffffffffffffffff1614159050919050565b600033905090565b816004600083815260200190815260200160002060006101000a81548173ffffffffffffffffffffffffffffffffffffffff021916908373ffffffffffffffffffffffffffffffffffffffff160217905550808273ffffffffffffffffffffffffffffffffffffffff166116d983610dab565b73ffffffffffffffffffffffffffffffffffffffff167f8c5be1e5ebec7d5bd14f71427d1e84f3dd0314c0f7b2291e5b200ac8c7c3b92560405160405180910390a45050565b600061172a826115f2565b611769576040517f08c379a000000000000000000000000000000000000000000000000000000000815260040161176090613618565b60405180910390fd5b600061177483610dab565b90508073ffffffffffffffffffffffffffffffffffffffff168473ffffffffffffffffffffffffffffffffffffffff1614806117e357508373ffffffffffffffffffffffffffffffffffffffff166117cb8461064d565b73ffffffffffffffffffffffffffffffffffffffff16145b806117f457506117f381856113fc565b5b91505092915050565b8273ffffffffffffffffffffffffffffffffffffffff1661181d82610dab565b73ffffffffffffffffffffffffffffffffffffffff1614611873576040517f08c379a000000000000000000000000000000000000000000000000000000000815260040161186a906136aa565b60405180910390fd5b600073ffffffffffffffffffffffffffffffffffffffff168273ffffffffffffffffffffffffffffffffffffffff1614156118e3576040517f08c379a00000000000000000000000000000000000000000000000000000000081526004016118da9061373c565b60405180910390fd5b6118ee838383611f08565b6118f9600082611666565b6001600360008573ffffffffffffffffffffffffffffffffffffffff1673ffffffffffffffffffffffffffffffffffffffff1681526020019081526020016000206000828254611949919061378b565b925050819055506001600360008473ffffffffffffffffffffffffffffffffffffffff1673ffffffffffffffffffffffffffffffffffffffff16815260200190815260200160002060008282546119a091906137bf565b92505081905550816002600083815260200190815260200160002060006101000a81548173ffffffffffffffffffffffffffffffffffffffff021916908373ffffffffffffffffffffffffffffffffffffffff160217905550808273ffffffffffffffffffffffffffffffffffffffff168473ffffffffffffffffffffffffffffffffffffffff167fddf252ad1be2c89b69c2b068fc378daa952ba7f163c4a11628f55a4df523b3ef60405160405180910390a4611a5f838383611f0d565b505050565b6000600960008381526020019081526020016000206000018190555060006009600083815260200190815260200160002060010160006101000a81548173ffffffffffffffffffffffffffffffffffffffff021916908373ffffffffffffffffffffffffffffffffffffffff16021790555050565b60008183611ae79190613815565b905092915050565b60008183611afd919061389e565b905092915050565b6000600760009054906101000a900473ffffffffffffffffffffffffffffffffffffffff16905081600760006101000a81548173ffffffffffffffffffffffffffffffffffffffff021916908373ffffffffffffffffffffffffffffffffffffffff1602179055508173ffffffffffffffffffffffffffffffffffffffff168173ffffffffffffffffffffffffffffffffffffffff167f8be0079c531659141344cd1fd0a4f28419497f9722a3daafe3b4186f6b6457e060405160405180910390a35050565b8173ffffffffffffffffffffffffffffffffffffffff168373ffffffffffffffffffffffffffffffffffffffff161415611c3a576040517f08c379a0000000000000000000000000000000000000000000000000000000008152600401611c319061391b565b60405180910390fd5b80600560008573ffffffffffffffffffffffffffffffffffffffff1673ffffffffffffffffffffffffffffffffffffffff16815260200190815260200160002060008473ffffffffffffffffffffffffffffffffffffffff1673ffffffffffffffffffffffffffffffffffffffff16815260200190815260200160002060006101000a81548160ff0219169083151502179055508173ffffffffffffffffffffffffffffffffffffffff168373ffffffffffffffffffffffffffffffffffffffff167f17307eab39ab6107e8899845ad3d59bd9653f200f220920489ca2b5937696c3183604051611d2b91906125aa565b60405180910390a3505050565b611d438484846117fd565b611d4f84848484611f12565b611d8e576040517f08c379a0000000000000000000000000000000000000000000000000000000008152600401611d85906139ad565b60405180910390fd5b50505050565b606060405180602001604052806000815250905090565b6060611db6826115f2565b611df5576040517f08c379a0000000000000000000000000000000000000000000000000000000008152600401611dec90613a3f565b60405180910390fd5b6000611dff611d94565b90506000815111611e1f5760405180602001604052806000815250611e4a565b80611e298461209a565b604051602001611e3a929190613467565b6040516020818303038152906040525b915050919050565b6001816000016000828254019250508190555050565b600081600001549050919050565b611e908282604051806020016040528060008152506121fb565b5050565b611e9d826115f2565b611edc576040517f08c379a0000000000000000000000000000000000000000000000000000000008152600401611ed390613ad1565b60405180910390fd5b80600660008481526020019081526020016000209080519060200190611f03929190612453565b505050565b505050565b505050565b6000611f338473ffffffffffffffffffffffffffffffffffffffff16612256565b1561208d578373ffffffffffffffffffffffffffffffffffffffff1663150b7a02611f5c61165e565b8786866040518563ffffffff1660e01b8152600401611f7e9493929190613b46565b6020604051808303816000875af1925050508015611fba57506040513d601f19601f82011682018060405250810190611fb79190613ba7565b60015b61203d573d8060008114611fea576040519150601f19603f3d011682016040523d82523d6000602084013e611fef565b606091505b50600081511415612035576040517f08c379a000000000000000000000000000000000000000000000000000000000815260040161202c906139ad565b60405180910390fd5b805181602001fd5b63150b7a0260e01b7bffffffffffffffffffffffffffffffffffffffffffffffffffffffff1916817bffffffffffffffffffffffffffffffffffffffffffffffffffffffff191614915050612092565b600190505b949350505050565b606060008214156120e2576040518060400160405280600181526020017f300000000000000000000000000000000000000000000000000000000000000081525090506121f6565b600082905060005b600082146121145780806120fd90613bd4565b915050600a8261210d919061389e565b91506120ea565b60008167ffffffffffffffff8111156121305761212f61290b565b5b6040519080825280601f01601f1916602001820160405280156121625781602001600182028036833780820191505090505b5090505b600085146121ef5760018261217b919061378b565b9150600a8561218a9190613c1d565b603061219691906137bf565b60f81b8183815181106121ac576121ab613c4e565b5b60200101907effffffffffffffffffffffffffffffffffffffffffffffffffffffffffffff1916908160001a905350600a856121e8919061389e565b9450612166565b8093505050505b919050565b6122058383612279565b6122126000848484611f12565b612251576040517f08c379a0000000000000000000000000000000000000000000000000000000008152600401612248906139ad565b60405180910390fd5b505050565b6000808273ffffffffffffffffffffffffffffffffffffffff163b119050919050565b600073ffffffffffffffffffffffffffffffffffffffff168273ffffffffffffffffffffffffffffffffffffffff1614156122e9576040517f08c379a00000000000000000000000000000000000000000000000000000000081526004016122e090613cc9565b60405180910390fd5b6122f2816115f2565b15612332576040517f08c379a000000000000000000000000000000000000000000000000000000000815260040161232990613d35565b60405180910390fd5b61233e60008383611f08565b6001600360008473ffffffffffffffffffffffffffffffffffffffff1673ffffffffffffffffffffffffffffffffffffffff168152602001908152602001600020600082825461238e91906137bf565b92505081905550816002600083815260200190815260200160002060006101000a81548173ffffffffffffffffffffffffffffffffffffffff021916908373ffffffffffffffffffffffffffffffffffffffff160217905550808273ffffffffffffffffffffffffffffffffffffffff16600073ffffffffffffffffffffffffffffffffffffffff167fddf252ad1be2c89b69c2b068fc378daa952ba7f163c4a11628f55a4df523b3ef60405160405180910390a461244f60008383611f0d565b5050565b82805461245f90612bd5565b90600052602060002090601f01602090048101928261248157600085556124c8565b82601f1061249a57805160ff19168380011785556124c8565b828001600101855582156124c8579182015b828111156124c75782518255916020019190600101906124ac565b5b5090506124d591906124d9565b5090565b5b808211156124f25760008160009055506001016124da565b5090565b6000604051905090565b600080fd5b600080fd5b60007fffffffff0000000000000000000000000000000000000000000000000000000082169050919050565b61253f8161250a565b811461254a57600080fd5b50565b60008135905061255c81612536565b92915050565b60006020828403121561257857612577612500565b5b60006125868482850161254d565b91505092915050565b60008115159050919050565b6125a48161258f565b82525050565b60006020820190506125bf600083018461259b565b92915050565b600081519050919050565b600082825260208201905092915050565b60005b838110156125ff5780820151818401526020810190506125e4565b8381111561260e576000848401525b50505050565b6000601f19601f8301169050919050565b6000612630826125c5565b61263a81856125d0565b935061264a8185602086016125e1565b61265381612614565b840191505092915050565b600060208201905081810360008301526126788184612625565b905092915050565b6000819050919050565b61269381612680565b811461269e57600080fd5b50565b6000813590506126b08161268a565b92915050565b6000602082840312156126cc576126cb612500565b5b60006126da848285016126a1565b91505092915050565b600073ffffffffffffffffffffffffffffffffffffffff82169050919050565b600061270e826126e3565b9050919050565b61271e81612703565b82525050565b60006020820190506127396000830184612715565b92915050565b61274881612703565b811461275357600080fd5b50565b6000813590506127658161273f565b92915050565b6000806040838503121561278257612781612500565b5b600061279085828601612756565b92505060206127a1858286016126a1565b9150509250929050565b6000806000606084860312156127c4576127c3612500565b5b60006127d286828701612756565b93505060206127e386828701612756565b92505060406127f4868287016126a1565b9150509250925092565b60006020828403121561281457612813612500565b5b600061282284828501612756565b91505092915050565b61283481612680565b82525050565b600060208201905061284f600083018461282b565b92915050565b6000806040838503121561286c5761286b612500565b5b600061287a858286016126a1565b925050602061288b858286016126a1565b9150509250929050565b61289e8161258f565b81146128a957600080fd5b50565b6000813590506128bb81612895565b92915050565b600080604083850312156128d8576128d7612500565b5b60006128e685828601612756565b92505060206128f7858286016128ac565b9150509250929050565b600080fd5b600080fd5b7f4e487b7100000000000000000000000000000000000000000000000000000000600052604160045260246000fd5b61294382612614565b810181811067ffffffffffffffff821117156129625761296161290b565b5b80604052505050565b60006129756124f6565b9050612981828261293a565b919050565b600067ffffffffffffffff8211156129a1576129a061290b565b5b6129aa82612614565b9050602081019050919050565b82818337600083830152505050565b60006129d96129d484612986565b61296b565b9050828152602081018484840111156129f5576129f4612906565b5b612a008482856129b7565b509392505050565b600082601f830112612a1d57612a1c612901565b5b8135612a2d8482602086016129c6565b91505092915050565b60008060008060808587031215612a5057612a4f612500565b5b6000612a5e87828801612756565b9450506020612a6f87828801612756565b9350506040612a80878288016126a1565b925050606085013567ffffffffffffffff811115612aa157612aa0612505565b5b612aad87828801612a08565b91505092959194509250565b600080fd5b600080fd5b60008083601f840112612ad957612ad8612901565b5b8235905067ffffffffffffffff811115612af657612af5612ab9565b5b602083019150836001820283011115612b1257612b11612abe565b5b9250929050565b60008060208385031215612b3057612b2f612500565b5b600083013567ffffffffffffffff811115612b4e57612b4d612505565b5b612b5a85828601612ac3565b92509250509250929050565b60008060408385031215612b7d57612b7c612500565b5b6000612b8b85828601612756565b9250506020612b9c85828601612756565b9150509250929050565b7f4e487b7100000000000000000000000000000000000000000000000000000000600052602260045260246000fd5b60006002820490506001821680612bed57607f821691505b60208210811415612c0157612c00612ba6565b5b50919050565b7f4552433732313a20617070726f76656420717565727920666f72206e6f6e657860008201527f697374656e7420746f6b656e0000000000000000000000000000000000000000602082015250565b6000612c63602c836125d0565b9150612c6e82612c07565b604082019050919050565b60006020820190508181036000830152612c9281612c56565b9050919050565b7f4552433732313a20617070726f76616c20746f2063757272656e74206f776e6560008201527f7200000000000000000000000000000000000000000000000000000000000000602082015250565b6000612cf56021836125d0565b9150612d0082612c99565b604082019050919050565b60006020820190508181036000830152612d2481612ce8565b9050919050565b7f4552433732313a20617070726f76652063616c6c6572206973206e6f74206f7760008201527f6e6572206e6f7220617070726f76656420666f7220616c6c0000000000000000602082015250565b6000612d876038836125d0565b9150612d9282612d2b565b604082019050919050565b60006020820190508181036000830152612db681612d7a565b9050919050565b7f4552433732313a207472616e736665722063616c6c6572206973206e6f74206f60008201527f776e6572206e6f7220617070726f766564000000000000000000000000000000602082015250565b6000612e196031836125d0565b9150612e2482612dbd565b604082019050919050565b60006020820190508181036000830152612e4881612e0c565b9050919050565b7f4f776e61626c653a2063616c6c6572206973206e6f7420746865206f776e6572600082015250565b6000612e856020836125d0565b9150612e9082612e4f565b602082019050919050565b60006020820190508181036000830152612eb481612e78565b9050919050565b7f4e46544d61726b65743a2062616c616e6365206973207a65726f000000000000600082015250565b6000612ef1601a836125d0565b9150612efc82612ebb565b602082019050919050565b60006020820190508181036000830152612f2081612ee4565b9050919050565b7f4e46544d61726b65743a206e6674206e6f74206c697374656420666f7220736160008201527f6c65000000000000000000000000000000000000000000000000000000000000602082015250565b6000612f836022836125d0565b9150612f8e82612f27565b604082019050919050565b60006020820190508181036000830152612fb281612f76565b9050919050565b7f4e46544d61726b65743a20796f75277265206e6f74207468652073656c6c6572600082015250565b6000612fef6020836125d0565b9150612ffa82612fb9565b602082019050919050565b6000602082019050818103600083015261301e81612fe2565b9050919050565b600060608201905061303a6000830186612715565b6130476020830185612715565b613054604083018461282b565b949350505050565b50565b600061306c6000836125d0565b91506130778261305c565b600082019050919050565b6000819050919050565b6000819050919050565b60006130b16130ac6130a784613082565b61308c565b612680565b9050919050565b6130c181613096565b82525050565b600060a0820190506130dc600083018761282b565b6130e96020830186612715565b6130f66040830185612715565b81810360608301526131078161305f565b905061311660808301846130b8565b95945050505050565b7f4e46544d61726b65743a20696e636f7272656374207072696365000000000000600082015250565b6000613155601a836125d0565b91506131608261311f565b602082019050919050565b6000602082019050818103600083015261318481613148565b9050919050565b7f4552433732313a206f776e657220717565727920666f72206e6f6e657869737460008201527f656e7420746f6b656e0000000000000000000000000000000000000000000000602082015250565b60006131e76029836125d0565b91506131f28261318b565b604082019050919050565b60006020820190508181036000830152613216816131da565b9050919050565b7f4552433732313a2062616c616e636520717565727920666f7220746865207a6560008201527f726f206164647265737300000000000000000000000000000000000000000000602082015250565b6000613279602a836125d0565b91506132848261321d565b604082019050919050565b600060208201905081810360008301526132a88161326c565b9050919050565b7f4e46544d61726b65743a207072696365206d757374206265206772656174657260008201527f207468616e203000000000000000000000000000000000000000000000000000602082015250565b600061330b6027836125d0565b9150613316826132af565b604082019050919050565b6000602082019050818103600083015261333a816132fe565b9050919050565b600060a082019050613356600083018761282b565b6133636020830186612715565b6133706040830185612715565b81810360608301526133818161305f565b9050613390608083018461282b565b95945050505050565b7f45524337323155524953746f726167653a2055524920717565727920666f722060008201527f6e6f6e6578697374656e7420746f6b656e000000000000000000000000000000602082015250565b60006133f56031836125d0565b915061340082613399565b604082019050919050565b60006020820190508181036000830152613424816133e8565b9050919050565b600081905092915050565b6000613441826125c5565b61344b818561342b565b935061345b8185602086016125e1565b80840191505092915050565b60006134738285613436565b915061347f8284613436565b91508190509392505050565b600061349783856125d0565b93506134a48385846129b7565b6134ad83612614565b840190509392505050565b600060a0820190506134cd600083018961282b565b6134da6020830188612715565b6134e76040830187612715565b81810360608301526134fa81858761348b565b905061350960808301846130b8565b979650505050505050565b7f4f776e61626c653a206e6577206f776e657220697320746865207a65726f206160008201527f6464726573730000000000000000000000000000000000000000000000000000602082015250565b60006135706026836125d0565b915061357b82613514565b604082019050919050565b6000602082019050818103600083015261359f81613563565b9050919050565b7f4552433732313a206f70657261746f7220717565727920666f72206e6f6e657860008201527f697374656e7420746f6b656e0000000000000000000000000000000000000000602082015250565b6000613602602c836125d0565b915061360d826135a6565b604082019050919050565b60006020820190508181036000830152613631816135f5565b9050919050565b7f4552433732313a207472616e736665722066726f6d20696e636f72726563742060008201527f6f776e6572000000000000000000000000000000000000000000000000000000602082015250565b60006136946025836125d0565b915061369f82613638565b604082019050919050565b600060208201905081810360008301526136c381613687565b9050919050565b7f4552433732313a207472616e7366657220746f20746865207a65726f2061646460008201527f7265737300000000000000000000000000000000000000000000000000000000602082015250565b60006137266024836125d0565b9150613731826136ca565b604082019050919050565b6000602082019050818103600083015261375581613719565b9050919050565b7f4e487b7100000000000000000000000000000000000000000000000000000000600052601160045260246000fd5b600061379682612680565b91506137a183612680565b9250828210156137b4576137b361375c565b5b828203905092915050565b60006137ca82612680565b91506137d583612680565b9250827fffffffffffffffffffffffffffffffffffffffffffffffffffffffffffffffff0382111561380a5761380961375c565b5b828201905092915050565b600061382082612680565b915061382b83612680565b9250817fffffffffffffffffffffffffffffffffffffffffffffffffffffffffffffffff04831182151516156138645761386361375c565b5b828202905092915050565b7f4e487b7100000000000000000000000000000000000000000000000000000000600052601260045260246000fd5b60006138a982612680565b91506138b483612680565b9250826138c4576138c361386f565b5b828204905092915050565b7f4552433732313a20617070726f766520746f2063616c6c657200000000000000600082015250565b60006139056019836125d0565b9150613910826138cf565b602082019050919050565b60006020820190508181036000830152613934816138f8565b9050919050565b7f4552433732313a207472616e7366657220746f206e6f6e20455243373231526560008201527f63656976657220696d706c656d656e7465720000000000000000000000000000602082015250565b60006139976032836125d0565b91506139a28261393b565b604082019050919050565b600060208201905081810360008301526139c68161398a565b9050919050565b7f4552433732314d657461646174613a2055524920717565727920666f72206e6f60008201527f6e6578697374656e7420746f6b656e0000000000000000000000000000000000602082015250565b6000613a29602f836125d0565b9150613a34826139cd565b604082019050919050565b60006020820190508181036000830152613a5881613a1c565b9050919050565b7f45524337323155524953746f726167653a2055524920736574206f66206e6f6e60008201527f6578697374656e7420746f6b656e000000000000000000000000000000000000602082015250565b6000613abb602e836125d0565b9150613ac682613a5f565b604082019050919050565b60006020820190508181036000830152613aea81613aae565b9050919050565b600081519050919050565b600082825260208201905092915050565b6000613b1882613af1565b613b228185613afc565b9350613b328185602086016125e1565b613b3b81612614565b840191505092915050565b6000608082019050613b5b6000830187612715565b613b686020830186612715565b613b75604083018561282b565b8181036060830152613b878184613b0d565b905095945050505050565b600081519050613ba181612536565b92915050565b600060208284031215613bbd57613bbc612500565b5b6000613bcb84828501613b92565b91505092915050565b6000613bdf82612680565b91507fffffffffffffffffffffffffffffffffffffffffffffffffffffffffffffffff821415613c1257613c1161375c565b5b600182019050919050565b6000613c2882612680565b9150613c3383612680565b925082613c4357613c4261386f565b5b828206905092915050565b7f4e487b7100000000000000000000000000000000000000000000000000000000600052603260045260246000fd5b7f4552433732313a206d696e7420746f20746865207a65726f2061646472657373600082015250565b6000613cb36020836125d0565b9150613cbe82613c7d565b602082019050919050565b60006020820190508181036000830152613ce281613ca6565b9050919050565b7f4552433732313a20746f6b656e20616c7265616479206d696e74656400000000600082015250565b6000613d1f601c836125d0565b9150613d2a82613ce9565b602082019050919050565b60006020820190508181036000830152613d4e81613d12565b905091905056fea2646970667358221220cb70082cdd162e977a8b70c30e0eabc46e128c7d39f3bec90003f106f9ae742464736f6c634300080b0033",
  "linkReferences": {},
  "deployedLinkReferences": {}
}