{
  "_format": "hh-sol-artifact-1",
  "contractName": "NFTMarket",
  "sourceName": "contracts/NFTMarket.sol",
  "abi": [
    {
      "inputs": [],
      "stateMutability": "nonpayable",
      "type": "constructor"
    },
    {
      "anonymous": false,
      "inputs": [
        {
          "indexed": true,
          "internalType": "address",
          "name": "owner",
          "type": "address"
        },
        {
          "indexed": true,
          "internalType": "address",
          "name": "approved",
          "type": "address"
        },
        {
          "indexed": true,
          "internalType": "uint256",
          "name": "tokenId",
          "type": "uint256"
        }
      ],
      "name": "Approval",
      "type": "event"
    },
    {
      "anonymous": false,
      "inputs": [
        {
          "indexed": true,
          "internalType": "address",
          "name": "owner",
          "type": "address"
        },
        {
          "indexed": true,
          "internalType": "address",
          "name": "operator",
          "type": "address"
        },
        {
          "indexed": false,
          "internalType": "bool",
          "name": "approved",
          "type": "bool"
        }
      ],
      "name": "ApprovalForAll",
      "type": "event"
    },
    {
      "anonymous": false,
      "inputs": [
        {
          "indexed": false,
          "internalType": "uint256",
          "name": "tokenID",
          "type": "uint256"
        },
        {
          "indexed": false,
          "internalType": "address",
          "name": "from",
          "type": "address"
        },
        {
          "indexed": false,
          "internalType": "address",
          "name": "to",
          "type": "address"
        },
        {
          "indexed": false,
          "internalType": "string",
          "name": "tokenURI",
          "type": "string"
        },
        {
          "indexed": false,
          "internalType": "uint256",
          "name": "price",
          "type": "uint256"
        }
      ],
      "name": "NFTTransfer",
      "type": "event"
    },
    {
      "anonymous": false,
      "inputs": [
        {
          "indexed": true,
          "internalType": "address",
          "name": "previousOwner",
          "type": "address"
        },
        {
          "indexed": true,
          "internalType": "address",
          "name": "newOwner",
          "type": "address"
        }
      ],
      "name": "OwnershipTransferred",
      "type": "event"
    },
    {
      "anonymous": false,
      "inputs": [
        {
          "indexed": true,
          "internalType": "address",
          "name": "from",
          "type": "address"
        },
        {
          "indexed": true,
          "internalType": "address",
          "name": "to",
          "type": "address"
        },
        {
          "indexed": true,
          "internalType": "uint256",
          "name": "tokenId",
          "type": "uint256"
        }
      ],
      "name": "Transfer",
      "type": "event"
    },
    {
      "inputs": [
        {
          "internalType": "address",
          "name": "to",
          "type": "address"
        },
        {
          "internalType": "uint256",
          "name": "tokenId",
          "type": "uint256"
        }
      ],
      "name": "approve",
      "outputs": [],
      "stateMutability": "nonpayable",
      "type": "function"
    },
    {
      "inputs": [
        {
          "internalType": "address",
          "name": "owner",
          "type": "address"
        }
      ],
      "name": "balanceOf",
      "outputs": [
        {
          "internalType": "uint256",
          "name": "",
          "type": "uint256"
        }
      ],
      "stateMutability": "view",
      "type": "function"
    },
    {
      "inputs": [
        {
          "internalType": "uint256",
          "name": "tokenID",
          "type": "uint256"
        }
      ],
      "name": "buyNFT",
      "outputs": [],
      "stateMutability": "payable",
      "type": "function"
    },
    {
      "inputs": [
        {
          "internalType": "uint256",
          "name": "tokenID",
          "type": "uint256"
        }
      ],
      "name": "cancelListing",
      "outputs": [],
      "stateMutability": "nonpayable",
      "type": "function"
    },
    {
      "inputs": [
        {
          "internalType": "string",
          "name": "tokenURI",
          "type": "string"
        }
      ],
      "name": "createNFT",
      "outputs": [],
      "stateMutability": "nonpayable",
      "type": "function"
    },
    {
      "inputs": [
        {
          "internalType": "uint256",
          "name": "tokenId",
          "type": "uint256"
        }
      ],
      "name": "getApproved",
      "outputs": [
        {
          "internalType": "address",
          "name": "",
          "type": "address"
        }
      ],
      "stateMutability": "view",
      "type": "function"
    },
    {
      "inputs": [
        {
          "internalType": "address",
          "name": "owner",
          "type": "address"
        },
        {
          "internalType": "address",
          "name": "operator",
          "type": "address"
        }
      ],
      "name": "isApprovedForAll",
      "outputs": [
        {
          "internalType": "bool",
          "name": "",
          "type": "bool"
        }
      ],
      "stateMutability": "view",
      "type": "function"
    },
    {
      "inputs": [
        {
          "internalType": "uint256",
          "name": "tokenID",
          "type": "uint256"
        },
        {
          "internalType": "uint256",
          "name": "price",
          "type": "uint256"
        }
      ],
      "name": "listNFT",
      "outputs": [],
      "stateMutability": "nonpayable",
      "type": "function"
    },
    {
      "inputs": [],
      "name": "name",
      "outputs": [
        {
          "internalType": "string",
          "name": "",
          "type": "string"
        }
      ],
      "stateMutability": "view",
      "type": "function"
    },
    {
      "inputs": [],
      "name": "owner",
      "outputs": [
        {
          "internalType": "address",
          "name": "",
          "type": "address"
        }
      ],
      "stateMutability": "view",
      "type": "function"
    },
    {
      "inputs": [
        {
          "internalType": "uint256",
          "name": "tokenId",
          "type": "uint256"
        }
      ],
      "name": "ownerOf",
      "outputs": [
        {
          "internalType": "address",
          "name": "",
          "type": "address"
        }
      ],
      "stateMutability": "view",
      "type": "function"
    },
    {
      "inputs": [],
      "name": "renounceOwnership",
      "outputs": [],
      "stateMutability": "nonpayable",
      "type": "function"
    },
    {
      "inputs": [
        {
          "internalType": "address",
          "name": "from",
          "type": "address"
        },
        {
          "internalType": "address",
          "name": "to",
          "type": "address"
        },
        {
          "internalType": "uint256",
          "name": "tokenId",
          "type": "uint256"
        }
      ],
      "name": "safeTransferFrom",
      "outputs": [],
      "stateMutability": "nonpayable",
      "type": "function"
    },
    {
      "inputs": [
        {
          "internalType": "address",
          "name": "from",
          "type": "address"
        },
        {
          "internalType": "address",
          "name": "to",
          "type": "address"
        },
        {
          "internalType": "uint256",
          "name": "tokenId",
          "type": "uint256"
        },
        {
          "internalType": "bytes",
          "name": "_data",
          "type": "bytes"
        }
      ],
      "name": "safeTransferFrom",
      "outputs": [],
      "stateMutability": "nonpayable",
      "type": "function"
    },
    {
      "inputs": [
        {
          "internalType": "address",
          "name": "operator",
          "type": "address"
        },
        {
          "internalType": "bool",
          "name": "approved",
          "type": "bool"
        }
      ],
      "name": "setApprovalForAll",
      "outputs": [],
      "stateMutability": "nonpayable",
      "type": "function"
    },
    {
      "inputs": [
        {
          "internalType": "bytes4",
          "name": "interfaceId",
          "type": "bytes4"
        }
      ],
      "name": "supportsInterface",
      "outputs": [
        {
          "internalType": "bool",
          "name": "",
          "type": "bool"
        }
      ],
      "stateMutability": "view",
      "type": "function"
    },
    {
      "inputs": [],
      "name": "symbol",
      "outputs": [
        {
          "internalType": "string",
          "name": "",
          "type": "string"
        }
      ],
      "stateMutability": "view",
      "type": "function"
    },
    {
      "inputs": [
        {
          "internalType": "uint256",
          "name": "tokenId",
          "type": "uint256"
        }
      ],
      "name": "tokenURI",
      "outputs": [
        {
          "internalType": "string",
          "name": "",
          "type": "string"
        }
      ],
      "stateMutability": "view",
      "type": "function"
    },
    {
      "inputs": [
        {
          "internalType": "address",
          "name": "from",
          "type": "address"
        },
        {
          "internalType": "address",
          "name": "to",
          "type": "address"
        },
        {
          "internalType": "uint256",
          "name": "tokenId",
          "type": "uint256"
        }
      ],
      "name": "transferFrom",
      "outputs": [],
      "stateMutability": "nonpayable",
      "type": "function"
    },
    {
      "inputs": [
        {
          "internalType": "address",
          "name": "newOwner",
          "type": "address"
        }
      ],
      "name": "transferOwnership",
      "outputs": [],
      "stateMutability": "nonpayable",
      "type": "function"
    },
    {
      "inputs": [],
      "name": "withdrawFunds",
      "outputs": [],
      "stateMutability": "nonpayable",
      "type": "function"
    }
  ],
  "bytecode": "0x60806040523480156200001157600080fd5b506040518060400160405280600c81526020017f4162646f752773204e46547300000000000000000000000000000000000000008152506040518060400160405280600481526020017f414e465400000000000000000000000000000000000000000000000000000000815250816000908051906020019062000096929190620001a6565b508060019080519060200190620000af929190620001a6565b505050620000d2620000c6620000d860201b60201c565b620000e060201b60201c565b620002bb565b600033905090565b6000600760009054906101000a900473ffffffffffffffffffffffffffffffffffffffff16905081600760006101000a81548173ffffffffffffffffffffffffffffffffffffffff021916908373ffffffffffffffffffffffffffffffffffffffff1602179055508173ffffffffffffffffffffffffffffffffffffffff168173ffffffffffffffffffffffffffffffffffffffff167f8be0079c531659141344cd1fd0a4f28419497f9722a3daafe3b4186f6b6457e060405160405180910390a35050565b828054620001b49062000285565b90600052602060002090601f016020900481019282620001d8576000855562000224565b82601f10620001f357805160ff191683800117855562000224565b8280016001018555821562000224579182015b828111156200022357825182559160200191906001019062000206565b5b50905062000233919062000237565b5090565b5b808211156200025257600081600090555060010162000238565b5090565b7f4e487b7100000000000000000000000000000000000000000000000000000000600052602260045260246000fd5b600060028204905060018216806200029e57607f821691505b60208210811415620002b557620002b462000256565b5b50919050565b613d5f80620002cb6000396000f3fe60806040526004361061012a5760003560e01c806370a08231116100ab578063a22cb4651161006f578063a22cb465146103bb578063b88d4fde146103e4578063c87b56dd1461040d578063da2ed03e1461044a578063e985e9c514610473578063f2fde38b146104b05761012a565b806370a08231146102e8578063715018a6146103255780638da5cb5b1461033c57806394383f141461036757806395d89b41146103905761012a565b806324600fc3116100f257806324600fc314610226578063305a67a81461023d57806342842e0e1461026657806351ed82881461028f5780636352211e146102ab5761012a565b806301ffc9a71461012f57806306fdde031461016c578063081812fc14610197578063095ea7b3146101d457806323b872dd146101fd575b600080fd5b34801561013b57600080fd5b5061015660048036038101906101519190612536565b6104d9565b604051610163919061257e565b60405180910390f35b34801561017857600080fd5b506101816105bb565b60405161018e9190612632565b60405180910390f35b3480156101a357600080fd5b506101be60048036038101906101b9919061268a565b61064d565b6040516101cb91906126f8565b60405180910390f35b3480156101e057600080fd5b506101fb60048036038101906101f6919061273f565b6106d2565b005b34801561020957600080fd5b50610224600480360381019061021f919061277f565b6107ea565b005b34801561023257600080fd5b5061023b61084a565b005b34801561024957600080fd5b50610264600480360381019061025f919061268a565b610958565b005b34801561027257600080fd5b5061028d6004803603810190610288919061277f565b610b4d565b005b6102a960048036038101906102a4919061268a565b610b6d565b005b3480156102b757600080fd5b506102d260048036038101906102cd919061268a565b610dab565b6040516102df91906126f8565b60405180910390f35b3480156102f457600080fd5b5061030f600480360381019061030a91906127d2565b610e5d565b60405161031c919061280e565b60405180910390f35b34801561033157600080fd5b5061033a610f15565b005b34801561034857600080fd5b50610351610f9d565b60405161035e91906126f8565b60405180910390f35b34801561037357600080fd5b5061038e60048036038101906103899190612829565b610fc7565b005b34801561039c57600080fd5b506103a56110e8565b6040516103b29190612632565b60405180910390f35b3480156103c757600080fd5b506103e260048036038101906103dd9190612895565b61117a565b005b3480156103f057600080fd5b5061040b60048036038101906104069190612a0a565b611190565b005b34801561041957600080fd5b50610434600480360381019061042f919061268a565b6111f2565b6040516104419190612632565b60405180910390f35b34801561045657600080fd5b50610471600480360381019061046c9190612aed565b611344565b005b34801561047f57600080fd5b5061049a60048036038101906104959190612b3a565b6113fc565b6040516104a7919061257e565b60405180910390f35b3480156104bc57600080fd5b506104d760048036038101906104d291906127d2565b611490565b005b60007f80ac58cd000000000000000000000000000000000000000000000000000000007bffffffffffffffffffffffffffffffffffffffffffffffffffffffff1916827bffffffffffffffffffffffffffffffffffffffffffffffffffffffff191614806105a457507f5b5e139f000000000000000000000000000000000000000000000000000000007bffffffffffffffffffffffffffffffffffffffffffffffffffffffff1916827bffffffffffffffffffffffffffffffffffffffffffffffffffffffff1916145b806105b457506105b382611588565b5b9050919050565b6060600080546105ca90612ba9565b80601f01602080910402602001604051908101604052809291908181526020018280546105f690612ba9565b80156106435780601f1061061857610100808354040283529160200191610643565b820191906000526020600020905b81548152906001019060200180831161062657829003601f168201915b5050505050905090565b6000610658826115f2565b610697576040517f08c379a000000000000000000000000000000000000000000000000000000000815260040161068e90612c4d565b60405180910390fd5b6004600083815260200190815260200160002060009054906101000a900473ffffffffffffffffffffffffffffffffffffffff169050919050565b60006106dd82610dab565b90508073ffffffffffffffffffffffffffffffffffffffff168373ffffffffffffffffffffffffffffffffffffffff16141561074e576040517f08c379a000000000000000000000000000000000000000000000000000000000815260040161074590612cdf565b60405180910390fd5b8073ffffffffffffffffffffffffffffffffffffffff1661076d61165e565b73ffffffffffffffffffffffffffffffffffffffff16148061079c575061079b8161079661165e565b6113fc565b5b6107db576040517f08c379a00000000000000000000000000000000000000000000000000000000081526004016107d290612d71565b60405180910390fd5b6107e58383611666565b505050565b6107fb6107f561165e565b8261171f565b61083a576040517f08c379a000000000000000000000000000000000000000000000000000000000815260040161083190612e03565b60405180910390fd5b6108458383836117fd565b505050565b61085261165e565b73ffffffffffffffffffffffffffffffffffffffff16610870610f9d565b73ffffffffffffffffffffffffffffffffffffffff16146108c6576040517f08c379a00000000000000000000000000000000000000000000000000000000081526004016108bd90612e6f565b60405180910390fd5b60004790506000811161090e576040517f08c379a000000000000000000000000000000000000000000000000000000000815260040161090590612edb565b60405180910390fd5b3373ffffffffffffffffffffffffffffffffffffffff166108fc829081150290604051600060405180830381858888f19350505050158015610954573d6000803e3d6000fd5b5050565b600060096000838152602001908152602001600020604051806040016040529081600082015481526020016001820160009054906101000a900473ffffffffffffffffffffffffffffffffffffffff1673ffffffffffffffffffffffffffffffffffffffff1673ffffffffffffffffffffffffffffffffffffffff168152505090506000816000015111610a21576040517f08c379a0000000000000000000000000000000000000000000000000000000008152600401610a1890612f6d565b60405180910390fd5b3373ffffffffffffffffffffffffffffffffffffffff16816020015173ffffffffffffffffffffffffffffffffffffffff1614610a93576040517f08c379a0000000000000000000000000000000000000000000000000000000008152600401610a8a90612fd9565b60405180910390fd5b3073ffffffffffffffffffffffffffffffffffffffff166323b872dd3033856040518463ffffffff1660e01b8152600401610ad093929190612ff9565b600060405180830381600087803b158015610aea57600080fd5b505af1158015610afe573d6000803e3d6000fd5b50505050610b0b82611a59565b7f705332a8918666802fc1504f63ff1f002a5f6cedd30d59ad7ae0b5281aeb8dca8230336000604051610b41949392919061309b565b60405180910390a15050565b610b6883838360405180602001604052806000815250611190565b505050565b600060096000838152602001908152602001600020604051806040016040529081600082015481526020016001820160009054906101000a900473ffffffffffffffffffffffffffffffffffffffff1673ffffffffffffffffffffffffffffffffffffffff1673ffffffffffffffffffffffffffffffffffffffff168152505090506000816000015111610c36576040517f08c379a0000000000000000000000000000000000000000000000000000000008152600401610c2d90612f6d565b60405180910390fd5b80600001513414610c7c576040517f08c379a0000000000000000000000000000000000000000000000000000000008152600401610c739061313f565b60405180910390fd5b3073ffffffffffffffffffffffffffffffffffffffff166323b872dd3033856040518463ffffffff1660e01b8152600401610cb993929190612ff9565b600060405180830381600087803b158015610cd357600080fd5b505af1158015610ce7573d6000803e3d6000fd5b50505050610cf482611a59565b806020015173ffffffffffffffffffffffffffffffffffffffff166108fc610d3d6064610d2f605f8660000151611ace90919063ffffffff16565b611ae490919063ffffffff16565b9081150290604051600060405180830381858888f19350505050158015610d68573d6000803e3d6000fd5b507f705332a8918666802fc1504f63ff1f002a5f6cedd30d59ad7ae0b5281aeb8dca8230336000604051610d9f949392919061309b565b60405180910390a15050565b6000806002600084815260200190815260200160002060009054906101000a900473ffffffffffffffffffffffffffffffffffffffff169050600073ffffffffffffffffffffffffffffffffffffffff168173ffffffffffffffffffffffffffffffffffffffff161415610e54576040517f08c379a0000000000000000000000000000000000000000000000000000000008152600401610e4b906131d1565b60405180910390fd5b80915050919050565b60008073ffffffffffffffffffffffffffffffffffffffff168273ffffffffffffffffffffffffffffffffffffffff161415610ece576040517f08c379a0000000000000000000000000000000000000000000000000000000008152600401610ec590613263565b60405180910390fd5b600360008373ffffffffffffffffffffffffffffffffffffffff1673ffffffffffffffffffffffffffffffffffffffff168152602001908152602001600020549050919050565b610f1d61165e565b73ffffffffffffffffffffffffffffffffffffffff16610f3b610f9d565b73ffffffffffffffffffffffffffffffffffffffff1614610f91576040517f08c379a0000000000000000000000000000000000000000000000000000000008152600401610f8890612e6f565b60405180910390fd5b610f9b6000611afa565b565b6000600760009054906101000a900473ffffffffffffffffffffffffffffffffffffffff16905090565b6000811161100a576040517f08c379a0000000000000000000000000000000000000000000000000000000008152600401611001906132f5565b60405180910390fd5b6110153330846107ea565b60405180604001604052808281526020013373ffffffffffffffffffffffffffffffffffffffff16815250600960008481526020019081526020016000206000820151816000015560208201518160010160006101000a81548173ffffffffffffffffffffffffffffffffffffffff021916908373ffffffffffffffffffffffffffffffffffffffff1602179055509050507f705332a8918666802fc1504f63ff1f002a5f6cedd30d59ad7ae0b5281aeb8dca823330846040516110dc9493929190613315565b60405180910390a15050565b6060600180546110f790612ba9565b80601f016020809104026020016040519081016040528092919081815260200182805461112390612ba9565b80156111705780601f1061114557610100808354040283529160200191611170565b820191906000526020600020905b81548152906001019060200180831161115357829003601f168201915b5050505050905090565b61118c61118561165e565b8383611bc0565b5050565b6111a161119b61165e565b8361171f565b6111e0576040517f08c379a00000000000000000000000000000000000000000000000000000000081526004016111d790612e03565b60405180910390fd5b6111ec84848484611d2d565b50505050565b60606111fd826115f2565b61123c576040517f08c379a0000000000000000000000000000000000000000000000000000000008152600401611233906133df565b60405180910390fd5b600060066000848152602001908152602001600020805461125c90612ba9565b80601f016020809104026020016040519081016040528092919081815260200182805461128890612ba9565b80156112d55780601f106112aa576101008083540402835291602001916112d5565b820191906000526020600020905b8154815290600101906020018083116112b857829003601f168201915b5050505050905060006112e6611d89565b90506000815114156112fc57819250505061133f565b60008251111561133157808260405160200161131992919061343b565b6040516020818303038152906040529250505061133f565b61133a84611da0565b925050505b919050565b61134e6008611e47565b600061135a6008611e5d565b90506113663382611e6b565b6113b48184848080601f016020809104026020016040519081016040528093929190818152602001838380828437600081840152601f19601f82011690508083019250505050505050611e89565b7f705332a8918666802fc1504f63ff1f002a5f6cedd30d59ad7ae0b5281aeb8dca81600033868660006040516113ef9695949392919061348c565b60405180910390a1505050565b6000600560008473ffffffffffffffffffffffffffffffffffffffff1673ffffffffffffffffffffffffffffffffffffffff16815260200190815260200160002060008373ffffffffffffffffffffffffffffffffffffffff1673ffffffffffffffffffffffffffffffffffffffff16815260200190815260200160002060009054906101000a900460ff16905092915050565b61149861165e565b73ffffffffffffffffffffffffffffffffffffffff166114b6610f9d565b73ffffffffffffffffffffffffffffffffffffffff161461150c576040517f08c379a000000000000000000000000000000000000000000000000000000000815260040161150390612e6f565b60405180910390fd5b600073ffffffffffffffffffffffffffffffffffffffff168173ffffffffffffffffffffffffffffffffffffffff16141561157c576040517f08c379a00000000000000000000000000000000000000000000000000000000081526004016115739061355a565b60405180910390fd5b61158581611afa565b50565b60007f01ffc9a7000000000000000000000000000000000000000000000000000000007bffffffffffffffffffffffffffffffffffffffffffffffffffffffff1916827bffffffffffffffffffffffffffffffffffffffffffffffffffffffff1916149050919050565b60008073ffffffffffffffffffffffffffffffffffffffff166002600084815260200190815260200160002060009054906101000a900473ffffffffffffffffffffffffffffffffffffffff1673ffffffffffffffffffffffffffffffffffffffff1614159050919050565b600033905090565b816004600083815260200190815260200160002060006101000a81548173ffffffffffffffffffffffffffffffffffffffff021916908373ffffffffffffffffffffffffffffffffffffffff160217905550808273ffffffffffffffffffffffffffffffffffffffff166116d983610dab565b73ffffffffffffffffffffffffffffffffffffffff167f8c5be1e5ebec7d5bd14f71427d1e84f3dd0314c0f7b2291e5b200ac8c7c3b92560405160405180910390a45050565b600061172a826115f2565b611769576040517f08c379a0000000000000000000000000000000000000000000000000000000008152600401611760906135ec565b60405180910390fd5b600061177483610dab565b90508073ffffffffffffffffffffffffffffffffffffffff168473ffffffffffffffffffffffffffffffffffffffff1614806117e357508373ffffffffffffffffffffffffffffffffffffffff166117cb8461064d565b73ffffffffffffffffffffffffffffffffffffffff16145b806117f457506117f381856113fc565b5b91505092915050565b8273ffffffffffffffffffffffffffffffffffffffff1661181d82610dab565b73ffffffffffffffffffffffffffffffffffffffff1614611873576040517f08c379a000000000000000000000000000000000000000000000000000000000815260040161186a9061367e565b60405180910390fd5b600073ffffffffffffffffffffffffffffffffffffffff168273ffffffffffffffffffffffffffffffffffffffff1614156118e3576040517f08c379a00000000000000000000000000000000000000000000000000000000081526004016118da90613710565b60405180910390fd5b6118ee838383611efd565b6118f9600082611666565b6001600360008573ffffffffffffffffffffffffffffffffffffffff1673ffffffffffffffffffffffffffffffffffffffff1681526020019081526020016000206000828254611949919061375f565b925050819055506001600360008473ffffffffffffffffffffffffffffffffffffffff1673ffffffffffffffffffffffffffffffffffffffff16815260200190815260200160002060008282546119a09190613793565b92505081905550816002600083815260200190815260200160002060006101000a81548173ffffffffffffffffffffffffffffffffffffffff021916908373ffffffffffffffffffffffffffffffffffffffff160217905550808273ffffffffffffffffffffffffffffffffffffffff168473ffffffffffffffffffffffffffffffffffffffff167fddf252ad1be2c89b69c2b068fc378daa952ba7f163c4a11628f55a4df523b3ef60405160405180910390a4505050565b6000600960008381526020019081526020016000206000018190555060006009600083815260200190815260200160002060010160006101000a81548173ffffffffffffffffffffffffffffffffffffffff021916908373ffffffffffffffffffffffffffffffffffffffff16021790555050565b60008183611adc91906137e9565b905092915050565b60008183611af29190613872565b905092915050565b6000600760009054906101000a900473ffffffffffffffffffffffffffffffffffffffff16905081600760006101000a81548173ffffffffffffffffffffffffffffffffffffffff021916908373ffffffffffffffffffffffffffffffffffffffff1602179055508173ffffffffffffffffffffffffffffffffffffffff168173ffffffffffffffffffffffffffffffffffffffff167f8be0079c531659141344cd1fd0a4f28419497f9722a3daafe3b4186f6b6457e060405160405180910390a35050565b8173ffffffffffffffffffffffffffffffffffffffff168373ffffffffffffffffffffffffffffffffffffffff161415611c2f576040517f08c379a0000000000000000000000000000000000000000000000000000000008152600401611c26906138ef565b60405180910390fd5b80600560008573ffffffffffffffffffffffffffffffffffffffff1673ffffffffffffffffffffffffffffffffffffffff16815260200190815260200160002060008473ffffffffffffffffffffffffffffffffffffffff1673ffffffffffffffffffffffffffffffffffffffff16815260200190815260200160002060006101000a81548160ff0219169083151502179055508173ffffffffffffffffffffffffffffffffffffffff168373ffffffffffffffffffffffffffffffffffffffff167f17307eab39ab6107e8899845ad3d59bd9653f200f220920489ca2b5937696c3183604051611d20919061257e565b60405180910390a3505050565b611d388484846117fd565b611d4484848484611f02565b611d83576040517f08c379a0000000000000000000000000000000000000000000000000000000008152600401611d7a90613981565b60405180910390fd5b50505050565b606060405180602001604052806000815250905090565b6060611dab826115f2565b611dea576040517f08c379a0000000000000000000000000000000000000000000000000000000008152600401611de190613a13565b60405180910390fd5b6000611df4611d89565b90506000815111611e145760405180602001604052806000815250611e3f565b80611e1e8461208a565b604051602001611e2f92919061343b565b6040516020818303038152906040525b915050919050565b6001816000016000828254019250508190555050565b600081600001549050919050565b611e858282604051806020016040528060008152506121eb565b5050565b611e92826115f2565b611ed1576040517f08c379a0000000000000000000000000000000000000000000000000000000008152600401611ec890613aa5565b60405180910390fd5b80600660008481526020019081526020016000209080519060200190611ef8929190612427565b505050565b505050565b6000611f238473ffffffffffffffffffffffffffffffffffffffff16612246565b1561207d578373ffffffffffffffffffffffffffffffffffffffff1663150b7a02611f4c61165e565b8786866040518563ffffffff1660e01b8152600401611f6e9493929190613b1a565b6020604051808303816000875af1925050508015611faa57506040513d601f19601f82011682018060405250810190611fa79190613b7b565b60015b61202d573d8060008114611fda576040519150601f19603f3d011682016040523d82523d6000602084013e611fdf565b606091505b50600081511415612025576040517f08c379a000000000000000000000000000000000000000000000000000000000815260040161201c90613981565b60405180910390fd5b805181602001fd5b63150b7a0260e01b7bffffffffffffffffffffffffffffffffffffffffffffffffffffffff1916817bffffffffffffffffffffffffffffffffffffffffffffffffffffffff191614915050612082565b600190505b949350505050565b606060008214156120d2576040518060400160405280600181526020017f300000000000000000000000000000000000000000000000000000000000000081525090506121e6565b600082905060005b600082146121045780806120ed90613ba8565b915050600a826120fd9190613872565b91506120da565b60008167ffffffffffffffff8111156121205761211f6128df565b5b6040519080825280601f01601f1916602001820160405280156121525781602001600182028036833780820191505090505b5090505b600085146121df5760018261216b919061375f565b9150600a8561217a9190613bf1565b60306121869190613793565b60f81b81838151811061219c5761219b613c22565b5b60200101907effffffffffffffffffffffffffffffffffffffffffffffffffffffffffffff1916908160001a905350600a856121d89190613872565b9450612156565b8093505050505b919050565b6121f58383612259565b6122026000848484611f02565b612241576040517f08c379a000000000000000000000000000000000000000000000000000000000815260040161223890613981565b60405180910390fd5b505050565b600080823b905060008111915050919050565b600073ffffffffffffffffffffffffffffffffffffffff168273ffffffffffffffffffffffffffffffffffffffff1614156122c9576040517f08c379a00000000000000000000000000000000000000000000000000000000081526004016122c090613c9d565b60405180910390fd5b6122d2816115f2565b15612312576040517f08c379a000000000000000000000000000000000000000000000000000000000815260040161230990613d09565b60405180910390fd5b61231e60008383611efd565b6001600360008473ffffffffffffffffffffffffffffffffffffffff1673ffffffffffffffffffffffffffffffffffffffff168152602001908152602001600020600082825461236e9190613793565b92505081905550816002600083815260200190815260200160002060006101000a81548173ffffffffffffffffffffffffffffffffffffffff021916908373ffffffffffffffffffffffffffffffffffffffff160217905550808273ffffffffffffffffffffffffffffffffffffffff16600073ffffffffffffffffffffffffffffffffffffffff167fddf252ad1be2c89b69c2b068fc378daa952ba7f163c4a11628f55a4df523b3ef60405160405180910390a45050565b82805461243390612ba9565b90600052602060002090601f016020900481019282612455576000855561249c565b82601f1061246e57805160ff191683800117855561249c565b8280016001018555821561249c579182015b8281111561249b578251825591602001919060010190612480565b5b5090506124a991906124ad565b5090565b5b808211156124c65760008160009055506001016124ae565b5090565b6000604051905090565b600080fd5b600080fd5b60007fffffffff0000000000000000000000000000000000000000000000000000000082169050919050565b612513816124de565b811461251e57600080fd5b50565b6000813590506125308161250a565b92915050565b60006020828403121561254c5761254b6124d4565b5b600061255a84828501612521565b91505092915050565b60008115159050919050565b61257881612563565b82525050565b6000602082019050612593600083018461256f565b92915050565b600081519050919050565b600082825260208201905092915050565b60005b838110156125d35780820151818401526020810190506125b8565b838111156125e2576000848401525b50505050565b6000601f19601f8301169050919050565b600061260482612599565b61260e81856125a4565b935061261e8185602086016125b5565b612627816125e8565b840191505092915050565b6000602082019050818103600083015261264c81846125f9565b905092915050565b6000819050919050565b61266781612654565b811461267257600080fd5b50565b6000813590506126848161265e565b92915050565b6000602082840312156126a05761269f6124d4565b5b60006126ae84828501612675565b91505092915050565b600073ffffffffffffffffffffffffffffffffffffffff82169050919050565b60006126e2826126b7565b9050919050565b6126f2816126d7565b82525050565b600060208201905061270d60008301846126e9565b92915050565b61271c816126d7565b811461272757600080fd5b50565b60008135905061273981612713565b92915050565b60008060408385031215612756576127556124d4565b5b60006127648582860161272a565b925050602061277585828601612675565b9150509250929050565b600080600060608486031215612798576127976124d4565b5b60006127a68682870161272a565b93505060206127b78682870161272a565b92505060406127c886828701612675565b9150509250925092565b6000602082840312156127e8576127e76124d4565b5b60006127f68482850161272a565b91505092915050565b61280881612654565b82525050565b600060208201905061282360008301846127ff565b92915050565b600080604083850312156128405761283f6124d4565b5b600061284e85828601612675565b925050602061285f85828601612675565b9150509250929050565b61287281612563565b811461287d57600080fd5b50565b60008135905061288f81612869565b92915050565b600080604083850312156128ac576128ab6124d4565b5b60006128ba8582860161272a565b92505060206128cb85828601612880565b9150509250929050565b600080fd5b600080fd5b7f4e487b7100000000000000000000000000000000000000000000000000000000600052604160045260246000fd5b612917826125e8565b810181811067ffffffffffffffff82111715612936576129356128df565b5b80604052505050565b60006129496124ca565b9050612955828261290e565b919050565b600067ffffffffffffffff821115612975576129746128df565b5b61297e826125e8565b9050602081019050919050565b82818337600083830152505050565b60006129ad6129a88461295a565b61293f565b9050828152602081018484840111156129c9576129c86128da565b5b6129d484828561298b565b509392505050565b600082601f8301126129f1576129f06128d5565b5b8135612a0184826020860161299a565b91505092915050565b60008060008060808587031215612a2457612a236124d4565b5b6000612a328782880161272a565b9450506020612a438782880161272a565b9350506040612a5487828801612675565b925050606085013567ffffffffffffffff811115612a7557612a746124d9565b5b612a81878288016129dc565b91505092959194509250565b600080fd5b600080fd5b60008083601f840112612aad57612aac6128d5565b5b8235905067ffffffffffffffff811115612aca57612ac9612a8d565b5b602083019150836001820283011115612ae657612ae5612a92565b5b9250929050565b60008060208385031215612b0457612b036124d4565b5b600083013567ffffffffffffffff811115612b2257612b216124d9565b5b612b2e85828601612a97565b92509250509250929050565b60008060408385031215612b5157612b506124d4565b5b6000612b5f8582860161272a565b9250506020612b708582860161272a565b9150509250929050565b7f4e487b7100000000000000000000000000000000000000000000000000000000600052602260045260246000fd5b60006002820490506001821680612bc157607f821691505b60208210811415612bd557612bd4612b7a565b5b50919050565b7f4552433732313a20617070726f76656420717565727920666f72206e6f6e657860008201527f697374656e7420746f6b656e0000000000000000000000000000000000000000602082015250565b6000612c37602c836125a4565b9150612c4282612bdb565b604082019050919050565b60006020820190508181036000830152612c6681612c2a565b9050919050565b7f4552433732313a20617070726f76616c20746f2063757272656e74206f776e6560008201527f7200000000000000000000000000000000000000000000000000000000000000602082015250565b6000612cc96021836125a4565b9150612cd482612c6d565b604082019050919050565b60006020820190508181036000830152612cf881612cbc565b9050919050565b7f4552433732313a20617070726f76652063616c6c6572206973206e6f74206f7760008201527f6e6572206e6f7220617070726f76656420666f7220616c6c0000000000000000602082015250565b6000612d5b6038836125a4565b9150612d6682612cff565b604082019050919050565b60006020820190508181036000830152612d8a81612d4e565b9050919050565b7f4552433732313a207472616e736665722063616c6c6572206973206e6f74206f60008201527f776e6572206e6f7220617070726f766564000000000000000000000000000000602082015250565b6000612ded6031836125a4565b9150612df882612d91565b604082019050919050565b60006020820190508181036000830152612e1c81612de0565b9050919050565b7f4f776e61626c653a2063616c6c6572206973206e6f7420746865206f776e6572600082015250565b6000612e596020836125a4565b9150612e6482612e23565b602082019050919050565b60006020820190508181036000830152612e8881612e4c565b9050919050565b7f4e46544d61726b65743a2062616c616e6365206973207a65726f000000000000600082015250565b6000612ec5601a836125a4565b9150612ed082612e8f565b602082019050919050565b60006020820190508181036000830152612ef481612eb8565b9050919050565b7f4e46544d61726b65743a206e6674206e6f74206c697374656420666f7220736160008201527f6c65000000000000000000000000000000000000000000000000000000000000602082015250565b6000612f576022836125a4565b9150612f6282612efb565b604082019050919050565b60006020820190508181036000830152612f8681612f4a565b9050919050565b7f4e46544d61726b65743a20796f75277265206e6f74207468652073656c6c6572600082015250565b6000612fc36020836125a4565b9150612fce82612f8d565b602082019050919050565b60006020820190508181036000830152612ff281612fb6565b9050919050565b600060608201905061300e60008301866126e9565b61301b60208301856126e9565b61302860408301846127ff565b949350505050565b50565b60006130406000836125a4565b915061304b82613030565b600082019050919050565b6000819050919050565b6000819050919050565b600061308561308061307b84613056565b613060565b612654565b9050919050565b6130958161306a565b82525050565b600060a0820190506130b060008301876127ff565b6130bd60208301866126e9565b6130ca60408301856126e9565b81810360608301526130db81613033565b90506130ea608083018461308c565b95945050505050565b7f4e46544d61726b65743a20696e636f7272656374207072696365000000000000600082015250565b6000613129601a836125a4565b9150613134826130f3565b602082019050919050565b600060208201905081810360008301526131588161311c565b9050919050565b7f4552433732313a206f776e657220717565727920666f72206e6f6e657869737460008201527f656e7420746f6b656e0000000000000000000000000000000000000000000000602082015250565b60006131bb6029836125a4565b91506131c68261315f565b604082019050919050565b600060208201905081810360008301526131ea816131ae565b9050919050565b7f4552433732313a2062616c616e636520717565727920666f7220746865207a6560008201527f726f206164647265737300000000000000000000000000000000000000000000602082015250565b600061324d602a836125a4565b9150613258826131f1565b604082019050919050565b6000602082019050818103600083015261327c81613240565b9050919050565b7f4e46544d61726b65743a207072696365206d757374206265206772656174657260008201527f207468616e203000000000000000000000000000000000000000000000000000602082015250565b60006132df6027836125a4565b91506132ea82613283565b604082019050919050565b6000602082019050818103600083015261330e816132d2565b9050919050565b600060a08201905061332a60008301876127ff565b61333760208301866126e9565b61334460408301856126e9565b818103606083015261335581613033565b905061336460808301846127ff565b95945050505050565b7f45524337323155524953746f726167653a2055524920717565727920666f722060008201527f6e6f6e6578697374656e7420746f6b656e000000000000000000000000000000602082015250565b60006133c96031836125a4565b91506133d48261336d565b604082019050919050565b600060208201905081810360008301526133f8816133bc565b9050919050565b600081905092915050565b600061341582612599565b61341f81856133ff565b935061342f8185602086016125b5565b80840191505092915050565b6000613447828561340a565b9150613453828461340a565b91508190509392505050565b600061346b83856125a4565b935061347883858461298b565b613481836125e8565b840190509392505050565b600060a0820190506134a160008301896127ff565b6134ae60208301886126e9565b6134bb60408301876126e9565b81810360608301526134ce81858761345f565b90506134dd608083018461308c565b979650505050505050565b7f4f776e61626c653a206e6577206f776e657220697320746865207a65726f206160008201527f6464726573730000000000000000000000000000000000000000000000000000602082015250565b60006135446026836125a4565b915061354f826134e8565b604082019050919050565b6000602082019050818103600083015261357381613537565b9050919050565b7f4552433732313a206f70657261746f7220717565727920666f72206e6f6e657860008201527f697374656e7420746f6b656e0000000000000000000000000000000000000000602082015250565b60006135d6602c836125a4565b91506135e18261357a565b604082019050919050565b60006020820190508181036000830152613605816135c9565b9050919050565b7f4552433732313a207472616e73666572206f6620746f6b656e2074686174206960008201527f73206e6f74206f776e0000000000000000000000000000000000000000000000602082015250565b60006136686029836125a4565b91506136738261360c565b604082019050919050565b600060208201905081810360008301526136978161365b565b9050919050565b7f4552433732313a207472616e7366657220746f20746865207a65726f2061646460008201527f7265737300000000000000000000000000000000000000000000000000000000602082015250565b60006136fa6024836125a4565b91506137058261369e565b604082019050919050565b60006020820190508181036000830152613729816136ed565b9050919050565b7f4e487b7100000000000000000000000000000000000000000000000000000000600052601160045260246000fd5b600061376a82612654565b915061377583612654565b92508282101561378857613787613730565b5b828203905092915050565b600061379e82612654565b91506137a983612654565b9250827fffffffffffffffffffffffffffffffffffffffffffffffffffffffffffffffff038211156137de576137dd613730565b5b828201905092915050565b60006137f482612654565b91506137ff83612654565b9250817fffffffffffffffffffffffffffffffffffffffffffffffffffffffffffffffff048311821515161561383857613837613730565b5b828202905092915050565b7f4e487b7100000000000000000000000000000000000000000000000000000000600052601260045260246000fd5b600061387d82612654565b915061388883612654565b92508261389857613897613843565b5b828204905092915050565b7f4552433732313a20617070726f766520746f2063616c6c657200000000000000600082015250565b60006138d96019836125a4565b91506138e4826138a3565b602082019050919050565b60006020820190508181036000830152613908816138cc565b9050919050565b7f4552433732313a207472616e7366657220746f206e6f6e20455243373231526560008201527f63656976657220696d706c656d656e7465720000000000000000000000000000602082015250565b600061396b6032836125a4565b91506139768261390f565b604082019050919050565b6000602082019050818103600083015261399a8161395e565b9050919050565b7f4552433732314d657461646174613a2055524920717565727920666f72206e6f60008201527f6e6578697374656e7420746f6b656e0000000000000000000000000000000000602082015250565b60006139fd602f836125a4565b9150613a08826139a1565b604082019050919050565b60006020820190508181036000830152613a2c816139f0565b9050919050565b7f45524337323155524953746f726167653a2055524920736574206f66206e6f6e60008201527f6578697374656e7420746f6b656e000000000000000000000000000000000000602082015250565b6000613a8f602e836125a4565b9150613a9a82613a33565b604082019050919050565b60006020820190508181036000830152613abe81613a82565b9050919050565b600081519050919050565b600082825260208201905092915050565b6000613aec82613ac5565b613af68185613ad0565b9350613b068185602086016125b5565b613b0f816125e8565b840191505092915050565b6000608082019050613b2f60008301876126e9565b613b3c60208301866126e9565b613b4960408301856127ff565b8181036060830152613b5b8184613ae1565b905095945050505050565b600081519050613b758161250a565b92915050565b600060208284031215613b9157613b906124d4565b5b6000613b9f84828501613b66565b91505092915050565b6000613bb382612654565b91507fffffffffffffffffffffffffffffffffffffffffffffffffffffffffffffffff821415613be657613be5613730565b5b600182019050919050565b6000613bfc82612654565b9150613c0783612654565b925082613c1757613c16613843565b5b828206905092915050565b7f4e487b7100000000000000000000000000000000000000000000000000000000600052603260045260246000fd5b7f4552433732313a206d696e7420746f20746865207a65726f2061646472657373600082015250565b6000613c876020836125a4565b9150613c9282613c51565b602082019050919050565b60006020820190508181036000830152613cb681613c7a565b9050919050565b7f4552433732313a20746f6b656e20616c7265616479206d696e74656400000000600082015250565b6000613cf3601c836125a4565b9150613cfe82613cbd565b602082019050919050565b60006020820190508181036000830152613d2281613ce6565b905091905056fea2646970667358221220f2e28b1bb191dfb9ad4d94268a3ced24c3f868c166260629c2dfb15f0cf9acc764736f6c634300080b0033",
  "linkReferences": {},
  "deployedLinkReferences": {}
}